S01D00004761726167656E6C69636874737465756572756E672E737265635C
S113000029C000002FC000002DC000002BC000003C
S113001029C0000027C0000025C0000023C0000044
S113002021C000001FC000001DC000001BC0000054
S113003019C0000017C0000015C0000013C0000064
S113004011C000000FC000000DC000000BC0000074
S113005009C0000011241FBECFE5D4E0DEBFCDBF30
S11300605FD013C1CDCF81B38C7381BBA5980895A4
S1130070811104C080B3809581700895813039F472
S113008080B381FB992790F981E089270895823014
S113009039F480B386FB992790F981E08927089584
S11300A0833031F480B38095881F8827881F089592
S11300B080E0089583B385FB882780F991E0892740
S11300C0089585B3817E85BB84B38E6184BBC0985B
S11300D0B89A0895811106C0662311F0A99A08956B
S11300E0A9980895813031F4662311F0AA9A0895ED
S11300F0AA980895823031F4662311F0AB9A0895DA
S1130100AB980895833029F4662311F0AC9A0895CE
S1130110AC980895882311F0C09A0895C098089562
S1130120D0DFA1DF60E080E0D5DF60E081E0D2DFF6
S113013060E082E0CFDF60E083E0CCDFC0E00F2E40
S1130140F5E5FF2EF02D08E514E1D0E011C060E0E4
S113015080E0C0DF60E081E0BDDF60E082E0BADF24
S113016060E083E0B7DFC0FF03C061E080E0B2DF9E
S1130170C1FF03C061E081E0ADDFC2FF03C061E005
S113018082E0A8DFC3FF03C061E083E0A3DF8F2D1B
S1130190902FA12FBD2F0197A109B109E1F7CF5FDE
S11301A0C031A9F6D0E0C12CD12C760100E010E0DA
S11301B0CFEF44244394512C612C712C812C912C2D
S11301C0A12CB12C202F312F2F5F3F4F2A368AE0EC
S11301D03807D1F780E04CDF811111C081E048DF9E
S11301E081110FC082E044DF81110DC083E040DF44
S11301F091E0811101C090E0392E319405C03C2E6C
S113020003C03C2E01C03C2E55DF81112DC034C0EB
S11302108FEFC81AD80AE80AF80A80EEC81683E9EC
S1130220D80684E0E806F10420F4D1E009C0D11135
S113023007C0332059F0D0E0C82CD92CEA2CFB2C71
S11302408C2F68DF6C2F80E045DF0AC080E062DF1E
S11302506C2F80E03FDFD0E0C82CD92CEA2CFB2C9B
S11302606C2F84E037DFAECF6C2F83E033DFC42CF8
S1130270D52CE62CF72CCCCF60E083E02BDFC11427
S1110280D104E104F10499F2C3CFF894FFCF46
S9030000FC
