S01D00004761726167656E6C69636874737465756572756E672E737265635C
S113000012C019C018C017C016C015C014C013C040
S113001012C011C010C00FC00EC00DC00CC00BC068
S11300200AC009C008C011241FBECFE5D4E0DEBF5A
S1130030CDBF62D025C1E4CF81B38C7381BBA598B9
S11300400895811107C080B381FB992790F981E05D
S113005089270895813039F480B382FB992790F978
S113006081E089270895823039F480B386FB99278B
S113007090F981E089270895833031F480B3809525
S1130080881F8827881F089580E0089583B385FB1F
S1130090882780F991E08927089585B3817E85BBFF
S11300A084B38E6184BBC098B89A0895811106C048
S11300B0662311F0A99A0895A9980895813031F41E
S11300C0662311F0AA9A0895AA980895823031F40B
S11300D0662311F0AB9A0895AB980895833029F400
S11300E0662311F0AC9A0895AC980895882311F012
S11300F0C09A0895C0980895D0DF9EDF60E080E044
S1130100D5DF60E081E0D2DF60E082E0CFDF60E055
S113011083E0CCDFC0E011C060E080E0C7DF60E0D6
S113012081E0C4DF60E082E0C1DF60E083E0BEDF45
S1130130C0FF03C061E080E0B9DFC1FF03C061E03C
S113014081E0B4DFC2FF03C061E082E0AFDFC3FF40
S113015003C061E083E0AADF2FE986E891E0215043
S113016080409040E1F700C00000CF5FC031A1F6AD
S113017060E080E09BDF60E081E098DF60E082E0A7
S113018095DF60E083E092DFB12CC0E0D0E0A12CE9
S1130190C12CD12C76011FEF22242394312C412C25
S11301A0512C612C712C812C912C89EF90E00197BA
S11301B0F1F700C0000080E044DF811110C081E04D
S11301C040DF81110EC082E03CDF81110CC083E06E
S11301D038DF01E0811101C000E0019505C0012F65
S11301E003C0012F01C0012F51DF811138C03FC06E
S11301F09FEFC91AD90AE90AF90A20EEC21623E9BF
S1130200D20624E0E206F10428F4AA24A39409C047
S1130210A11007C0002359F0A12CC62CD72CE82C20
S1130220F92C812F63DF612F80E040DF0AC080E07A
S11302305DDF60E080E03ADFA12CC62CD72CE82CEF
S1130240F92C2196C83E83E0D80729F4B09490E0B5
S1130250C92F20E0D22F6B2D82E028DFA6CF612F9B
S113026083E024DFC22CD32CE42CF52CC1CF60E036
S113027083E01CDFC114D104E104F10449F2B8CFD6
S1070280F894FFCF1C
S9030000FC
