S01D00004761726167656E6C69636874737465756572756E672E737265635C
S113000012C019C018C017C016C015C014C013C040
S113001012C011C010C00FC00EC00DC00CC00BC068
S11300200AC009C008C011241FBECFE5D4E0DEBF5A
S1130030CDBF5FD008C1E4CF81B38C7381BBA598D9
S11300400895811104C080B3809581700895813032
S113005039F480B381FB992790F981E089270895C9
S1130060823039F480B386FB992790F981E089279F
S11300700895833031F480B38095881F8827881FC2
S1130080089580E0089583B385FB882780F991E083
S11300908927089585B3817E85BB84B38E6184BB33
S11300A0C098B89A0895811106C0662311F0A99AE0
S11300B00895A9980895813031F4662311F0AA9A1D
S11300C00895AA980895823031F4662311F0AB9A0A
S11300D00895AB980895833029F4662311F0AC9AFF
S11300E00895AC980895882311F0C09A0895C09893
S11300F00895D0DFA1DF60E080E0D5DF60E081E03B
S1130100D2DF60E082E0CFDF60E083E0CCDFC0E0FC
S113011011C060E080E0C7DF60E081E0C4DF60E040
S113012082E0C1DF60E083E0BEDFC0FF03C061E0C6
S113013080E0B9DFC1FF03C061E081E0B4DFC2FF4A
S113014003C061E082E0AFDFC3FF03C061E083E08E
S1130150AADF2FEF89E698E1215080409040E1F733
S113016000C00000CF5FC031A1F610E0C12CD12C3B
S11301707601CFEF55245394612C712C812C912C52
S1130180A12CB12C00E08FE99FE00197F1F700C0AA
S1130190000080E056DF811110C081E052DF811140
S11301A00EC082E04EDF81110CC083E04ADFD1E053
S11301B0811101C0D0E0D19505C0DC2F03C0DC2F34
S11301C001C0DC2F60DF81112DC034C09FEFC91A3C
S11301D0D90AE90AF90A20EEC21623E9D20624E074
S11301E0E206F10420F411E009C0111107C0DD2377
S11301F059F010E0C92CDA2CEB2CF02E8C2F73DF85
S11302006C2F80E050DF0AC080E06DDF6C2F80E04F
S11302104ADF10E0C92CDA2CEB2CF02E6C2F84E092
S113022042DFB1CF6C2F83E03EDFC52CD62CE72C08
S1130230F82CCCCF60E083E036DFC114D104E104B4
S10D0240F10499F2C3CFF894FFCF44
S9030000FC
